:100000000C9452000C9400000C9400000C9400001E
:100010000C9400000C9400000C9400000C94000060
:100020000C9400000C9400000C9400000C94000050
:100030000C9400000C9400000C9400000C94000040
:100040000C9400000C9400000C9400000C94000030
:040050000C9400000C
:1000A400BFE5BDBFB8E0BEBF2F923F924F9244243C
:1000B4003324B0E12B2ED1DFBFEFB0936000BFEF4C
:0C00C400B09361004F903F902F90FFCF51
:10005E00BFEFB0936000BFEFB0936100BFEFB093FE
:10006E006200BFEFB0936300B7B3B068B7BBB7B36E
:10007E00BF7BB7BBB7B3B062B7BBB7B3B061B7BBEB
:10008E0032FABEB1B0F9BEB9032D037004290229AC
:06009E0000640DB9089595
:0A00540005900D920197E1F7089561
:00000001FF
